{
  "contractName": "Exchange",
  "abi": [
    {
      "inputs": [
        {
          "internalType": "address",
          "name": "_feeAccount",
          "type": "address"
        },
        {
          "internalType": "uint256",
          "name": "_feePercentage",
          "type": "uint256"
        }
      ],
      "stateMutability": "nonpayable",
      "type": "constructor"
    },
    {
      "anonymous": false,
      "inputs": [
        {
          "indexed": true,
          "internalType": "address",
          "name": "token",
          "type": "address"
        },
        {
          "indexed": true,
          "internalType": "address",
          "name": "user",
          "type": "address"
        },
        {
          "indexed": false,
          "internalType": "uint256",
          "name": "amount",
          "type": "uint256"
        },
        {
          "indexed": false,
          "internalType": "uint256",
          "name": "balance",
          "type": "uint256"
        }
      ],
      "name": "Deposit",
      "type": "event"
    },
    {
      "anonymous": false,
      "inputs": [
        {
          "indexed": true,
          "internalType": "bytes32",
          "name": "orderHash",
          "type": "bytes32"
        },
        {
          "indexed": true,
          "internalType": "address",
          "name": "user",
          "type": "address"
        },
        {
          "indexed": false,
          "internalType": "uint256",
          "name": "timestamp",
          "type": "uint256"
        }
      ],
      "name": "OrderCancelled",
      "type": "event"
    },
    {
      "anonymous": false,
      "inputs": [
        {
          "indexed": true,
          "internalType": "bytes32",
          "name": "orderHash",
          "type": "bytes32"
        },
        {
          "indexed": true,
          "internalType": "address",
          "name": "user",
          "type": "address"
        },
        {
          "indexed": false,
          "internalType": "address",
          "name": "tokenGet",
          "type": "address"
        },
        {
          "indexed": false,
          "internalType": "uint256",
          "name": "tokenGetAmount",
          "type": "uint256"
        },
        {
          "indexed": false,
          "internalType": "address",
          "name": "tokenGive",
          "type": "address"
        },
        {
          "indexed": false,
          "internalType": "uint256",
          "name": "tokenGiveAmount",
          "type": "uint256"
        },
        {
          "indexed": false,
          "internalType": "uint256",
          "name": "timestamp",
          "type": "uint256"
        }
      ],
      "name": "OrderCreated",
      "type": "event"
    },
    {
      "anonymous": false,
      "inputs": [
        {
          "indexed": true,
          "internalType": "bytes32",
          "name": "orderHash",
          "type": "bytes32"
        },
        {
          "indexed": true,
          "internalType": "address",
          "name": "user",
          "type": "address"
        },
        {
          "indexed": true,
          "internalType": "address",
          "name": "filler",
          "type": "address"
        },
        {
          "indexed": false,
          "internalType": "uint256",
          "name": "amount",
          "type": "uint256"
        },
        {
          "indexed": false,
          "internalType": "uint256",
          "name": "timestamp",
          "type": "uint256"
        }
      ],
      "name": "OrderFilled",
      "type": "event"
    },
    {
      "anonymous": false,
      "inputs": [
        {
          "indexed": true,
          "internalType": "address",
          "name": "token",
          "type": "address"
        },
        {
          "indexed": true,
          "internalType": "address",
          "name": "user",
          "type": "address"
        },
        {
          "indexed": false,
          "internalType": "uint256",
          "name": "amount",
          "type": "uint256"
        },
        {
          "indexed": false,
          "internalType": "uint256",
          "name": "balance",
          "type": "uint256"
        }
      ],
      "name": "Withdraw",
      "type": "event"
    },
    {
      "inputs": [],
      "name": "ETHER",
      "outputs": [
        {
          "internalType": "address",
          "name": "",
          "type": "address"
        }
      ],
      "stateMutability": "view",
      "type": "function",
      "constant": true
    },
    {
      "inputs": [],
      "name": "feeAccount",
      "outputs": [
        {
          "internalType": "address",
          "name": "",
          "type": "address"
        }
      ],
      "stateMutability": "view",
      "type": "function",
      "constant": true
    },
    {
      "inputs": [],
      "name": "feePercentage",
      "outputs": [
        {
          "internalType": "uint256",
          "name": "",
          "type": "uint256"
        }
      ],
      "stateMutability": "view",
      "type": "function",
      "constant": true
    },
    {
      "inputs": [
        {
          "internalType": "bytes32",
          "name": "",
          "type": "bytes32"
        }
      ],
      "name": "orders",
      "outputs": [
        {
          "internalType": "uint256",
          "name": "id",
          "type": "uint256"
        },
        {
          "internalType": "address",
          "name": "user",
          "type": "address"
        },
        {
          "internalType": "address",
          "name": "tokenGet",
          "type": "address"
        },
        {
          "internalType": "uint256",
          "name": "tokenGetAmount",
          "type": "uint256"
        },
        {
          "internalType": "address",
          "name": "tokenGive",
          "type": "address"
        },
        {
          "internalType": "uint256",
          "name": "tokenGiveAmount",
          "type": "uint256"
        },
        {
          "internalType": "uint256",
          "name": "timestamp",
          "type": "uint256"
        },
        {
          "internalType": "bool",
          "name": "filled",
          "type": "bool"
        },
        {
          "internalType": "bool",
          "name": "cancelled",
          "type": "bool"
        }
      ],
      "stateMutability": "view",
      "type": "function",
      "constant": true
    },
    {
      "inputs": [
        {
          "internalType": "address",
          "name": "",
          "type": "address"
        },
        {
          "internalType": "address",
          "name": "",
          "type": "address"
        }
      ],
      "name": "tokens",
      "outputs": [
        {
          "internalType": "uint256",
          "name": "",
          "type": "uint256"
        }
      ],
      "stateMutability": "view",
      "type": "function",
      "constant": true
    },
    {
      "inputs": [],
      "name": "depositEther",
      "outputs": [],
      "stateMutability": "payable",
      "type": "function",
      "payable": true
    },
    {
      "inputs": [
        {
          "internalType": "address",
          "name": "_token",
          "type": "address"
        },
        {
          "internalType": "uint256",
          "name": "_amount",
          "type": "uint256"
        }
      ],
      "name": "depositToken",
      "outputs": [],
      "stateMutability": "nonpayable",
      "type": "function"
    },
    {
      "inputs": [
        {
          "internalType": "uint256",
          "name": "_amount",
          "type": "uint256"
        }
      ],
      "name": "withdrawEther",
      "outputs": [],
      "stateMutability": "nonpayable",
      "type": "function"
    },
    {
      "inputs": [
        {
          "internalType": "address",
          "name": "_token",
          "type": "address"
        },
        {
          "internalType": "uint256",
          "name": "_amount",
          "type": "uint256"
        }
      ],
      "name": "withdrawToken",
      "outputs": [],
      "stateMutability": "nonpayable",
      "type": "function"
    },
    {
      "inputs": [
        {
          "internalType": "address",
          "name": "_token",
          "type": "address"
        },
        {
          "internalType": "address",
          "name": "_user",
          "type": "address"
        }
      ],
      "name": "balanceOf",
      "outputs": [
        {
          "internalType": "uint256",
          "name": "",
          "type": "uint256"
        }
      ],
      "stateMutability": "view",
      "type": "function",
      "constant": true
    },
    {
      "inputs": [
        {
          "internalType": "address",
          "name": "_tokenGet",
          "type": "address"
        },
        {
          "internalType": "uint256",
          "name": "_tokenGetAmount",
          "type": "uint256"
        },
        {
          "internalType": "address",
          "name": "_tokenGive",
          "type": "address"
        },
        {
          "internalType": "uint256",
          "name": "_tokenGiveAmount",
          "type": "uint256"
        }
      ],
      "name": "makeOrder",
      "outputs": [],
      "stateMutability": "nonpayable",
      "type": "function"
    },
    {
      "inputs": [
        {
          "internalType": "bytes32",
          "name": "_orderHash",
          "type": "bytes32"
        }
      ],
      "name": "cancelOrder",
      "outputs": [],
      "stateMutability": "nonpayable",
      "type": "function"
    },
    {
      "inputs": [
        {
          "internalType": "bytes32",
          "name": "_orderHash",
          "type": "bytes32"
        }
      ],
      "name": "fillOrder",
      "outputs": [],
      "stateMutability": "nonpayable",
      "type": "function"
    },
    {
      "inputs": [
        {
          "internalType": "bytes32",
          "name": "_orderHash",
          "type": "bytes32"
        }
      ],
      "name": "getOrder",
      "outputs": [
        {
          "internalType": "uint256",
          "name": "id",
          "type": "uint256"
        },
        {
          "internalType": "address",
          "name": "user",
          "type": "address"
        },
        {
          "internalType": "address",
          "name": "tokenGet",
          "type": "address"
        },
        {
          "internalType": "uint256",
          "name": "tokenGetAmount",
          "type": "uint256"
        },
        {
          "internalType": "address",
          "name": "tokenGive",
          "type": "address"
        },
        {
          "internalType": "uint256",
          "name": "tokenGiveAmount",
          "type": "uint256"
        },
        {
          "internalType": "uint256",
          "name": "timestamp",
          "type": "uint256"
        },
        {
          "internalType": "bool",
          "name": "filled",
          "type": "bool"
        },
        {
          "internalType": "bool",
          "name": "cancelled",
          "type": "bool"
        }
      ],
      "stateMutability": "view",
      "type": "function",
      "constant": true
    },
    {
      "inputs": [
        {
          "internalType": "bytes32",
          "name": "_orderHash",
          "type": "bytes32"
        }
      ],
      "name": "orderExists",
      "outputs": [
        {
          "internalType": "bool",
          "name": "",
          "type": "bool"
        }
      ],
      "stateMutability": "view",
      "type": "function",
      "constant": true
    }
  ],
  "bytecode": "0x60c06040523480156200001157600080fd5b5060405162003e6738038062003e67833981810160405260408110156200003757600080fd5b810190808051906020019092919080519060200190929190505050600073ffffffffffffffffffffffffffffffffffffffff168273ffffffffffffffffffffffffffffffffffffffff161415620000f6576040517f08c379a00000000000000000000000000000000000000000000000000000000081526004018080602001828103825260138152602001807f496e76616c696420666565206163636f756e740000000000000000000000000081525060200191505060405180910390fd5b6127108111156200016f576040517f08c379a00000000000000000000000000000000000000000000000000000000081526004018080602001828103825260178152602001807f4665652070657263656e7461676520746f6f206869676800000000000000000081525060200191505060405180910390fd5b8173ffffffffffffffffffffffffffffffffffffffff1660808173ffffffffffffffffffffffffffffffffffffffff166c0100000000000000000000000002815250508060a0818152505050506080516c01000000000000000000000000900460a051613c68620001ff600039806128915280612caa5250806113bd5280612fbe528061308c5250613c686000f3fe608060405260043610610105576000357c0100000000000000000000000000000000000000000000000000000000900480637489ec23116100a75780639e281a98116100765780639e281a981461055c578063a001ecdd146105b7578063ece21fb7146105e2578063f7888aec1461061d57610105565b80637489ec23146103c557806398ea5fca146104005780639a5c90aa1461040a5780639c3f1e901461048f57610105565b806342cb1fbc116100e357806342cb1fbc146101f1578063508493bc146102325780635778472a146102b757806365e17c9d1461038457610105565b80632cb77e9f1461010a578063338b5dea1461015b5780633bed33ce146101b6575b600080fd5b34801561011657600080fd5b506101436004803603602081101561012d57600080fd5b81019080803590602001909291905050506106a2565b60405180821515815260200191505060405180910390f35b34801561016757600080fd5b506101b46004803603604081101561017e57600080fd5b81019080803573ffffffffffffffffffffffffffffffffffffffff16906020019092919080359060200190929190505050610711565b005b3480156101c257600080fd5b506101ef600480360360208110156101d957600080fd5b8101908080359060200190929190505050610cd7565b005b3480156101fd57600080fd5b506102066111cd565b604051808273ffffffffffffffffffffffffffffffffffffffff16815260200191505060405180910390f35b34801561023e57600080fd5b506102a16004803603604081101561025557600080fd5b81019080803573ffffffffffffffffffffffffffffffffffffffff169060200190929190803573ffffffffffffffffffffffffffffffffffffffff1690602001909291905050506111d2565b6040518082815260200191505060405180910390f35b3480156102c357600080fd5b506102f0600480360360208110156102da57600080fd5b81019080803590602001909291905050506111f7565b604051808a81526020018973ffffffffffffffffffffffffffffffffffffffff1681526020018873ffffffffffffffffffffffffffffffffffffffff1681526020018781526020018673ffffffffffffffffffffffffffffffffffffffff16815260200185815260200184815260200183151581526020018215158152602001995050505050505050505060405180910390f35b34801561039057600080fd5b506103996113bb565b604051808273ffffffffffffffffffffffffffffffffffffffff16815260200191505060405180910390f35b3480156103d157600080fd5b506103fe600480360360208110156103e857600080fd5b81019080803590602001909291905050506113df565b005b61040861170e565b005b34801561041657600080fd5b5061048d6004803603608081101561042d57600080fd5b81019080803573ffffffffffffffffffffffffffffffffffffffff16906020019092919080359060200190929190803573ffffffffffffffffffffffffffffffffffffffff16906020019092919080359060200190929190505050611a35565b005b34801561049b57600080fd5b506104c8600480360360208110156104b257600080fd5b810190808035906020019092919050505061212e565b604051808a81526020018973ffffffffffffffffffffffffffffffffffffffff1681526020018873ffffffffffffffffffffffffffffffffffffffff1681526020018781526020018673ffffffffffffffffffffffffffffffffffffffff16815260200185815260200184815260200183151581526020018215158152602001995050505050505050505060405180910390f35b34801561056857600080fd5b506105b56004803603604081101561057f57600080fd5b81019080803573ffffffffffffffffffffffffffffffffffffffff169060200190929190803590602001909291905050506121f6565b005b3480156105c357600080fd5b506105cc61288f565b6040518082815260200191505060405180910390f35b3480156105ee57600080fd5b5061061b6004803603602081101561060557600080fd5b81019080803590602001909291905050506128b3565b005b34801561062957600080fd5b5061068c6004803603604081101561064057600080fd5b81019080803573ffffffffffffffffffffffffffffffffffffffff169060200190929190803573ffffffffffffffffffffffffffffffffffffffff1690602001909291905050506137c2565b6040518082815260200191505060405180910390f35b60008073ffffffffffffffffffffffffffffffffffffffff166001600084815260200190815260200160002060010160009054906101000a900473ffffffffffffffffffffffffffffffffffffffff1673ffffffffffffffffffffffffffffffffffffffff1614159050919050565b600260009054906101000a900460ff1615610794576040517f08c379a000000000000000000000000000000000000000000000000000000000815260040180806020018281038252600e8152602001807f5265656e7472616e742063616c6c00000000000000000000000000000000000081525060200191505060405180910390fd5b6001600260006101000a81548160ff021916908315150217905550600073ffffffffffffffffffffffffffffffffffffffff168273ffffffffffffffffffffffffffffffffffffffff161415610852576040517f08c379a00000000000000000000000000000000000000000000000000000000081526004018080602001828103825260188152602001807f557365206465706f736974457468657220666f7220455448000000000000000081525060200191505060405180910390fd5b600073ffffffffffffffffffffffffffffffffffffffff168273ffffffffffffffffffffffffffffffffffffffff1614156108f5576040517f08c379a00000000000000000000000000000000000000000000000000000000081526004018080602001828103825260158152602001807f496e76616c696420746f6b656e2061646472657373000000000000000000000081525060200191505060405180910390fd5b6000811161096b576040517f08c379a000000000000000000000000000000000000000000000000000000000815260040180806020018281038252601d8152602001807f416d6f756e74206d7573742062652067726561746572207468616e203000000081525060200191505060405180910390fd5b6109f9816000808573ffffffffffffffffffffffffffffffffffffffff1673ffffffffffffffffffffffffffffffffffffffff16815260200190815260200160002060003373ffffffffffffffffffffffffffffffffffffffff1673ffffffffffffffffffffffffffffffffffffffff1681526020019081526020016000205461384890919063ffffffff16565b6000808473ffffffffffffffffffffffffffffffffffffffff1673ffffffffffffffffffffffffffffffffffffffff16815260200190815260200160002060003373ffffffffffffffffffffffffffffffffffffffff1673ffffffffffffffffffffffffffffffffffffffff168152602001908152602001600020819055508173ffffffffffffffffffffffffffffffffffffffff166323b872dd3330846040518463ffffffff167c0100000000000000000000000000000000000000000000000000000000028152600401808473ffffffffffffffffffffffffffffffffffffffff1681526020018373ffffffffffffffffffffffffffffffffffffffff1681526020018281526020019350505050602060405180830381600087803b158015610b2357600080fd5b505af1158015610b37573d6000803e3d6000fd5b505050506040513d6020811015610b4d57600080fd5b8101908080519060200190929190505050610bd0576040517f08c379a000000000000000000000000000000000000000000000000000000000815260040180806020018281038252600f8152602001807f5472616e73666572206661696c6564000000000000000000000000000000000081525060200191505060405180910390fd5b3373ffffffffffffffffffffffffffffffffffffffff168273ffffffffffffffffffffffffffffffffffffffff167fdcbc1c05240f31ff3ad067ef1ee35ce4997762752e3a095284754544f4c709d7836000808773ffffffffffffffffffffffffffffffffffffffff1673ffffffffffffffffffffffffffffffffffffffff16815260200190815260200160002060003373ffffffffffffffffffffffffffffffffffffffff1673ffffffffffffffffffffffffffffffffffffffff16815260200190815260200160002054604051808381526020018281526020019250505060405180910390a36000600260006101000a81548160ff0219169083151502179055505050565b600260009054906101000a900460ff1615610d5a576040517f08c379a000000000000000000000000000000000000000000000000000000000815260040180806020018281038252600e8152602001807f5265656e7472616e742063616c6c00000000000000000000000000000000000081525060200191505060405180910390fd5b6001600260006101000a81548160ff02191690831515021790555060008111610deb576040517f08c379a000000000000000000000000000000000000000000000000000000000815260040180806020018281038252601d8152602001807f416d6f756e74206d7573742062652067726561746572207468616e203000000081525060200191505060405180910390fd5b806000808073ffffffffffffffffffffffffffffffffffffffff1673ffffffffffffffffffffffffffffffffffffffff16815260200190815260200160002060003373ffffffffffffffffffffffffffffffffffffffff1673ffffffffffffffffffffffffffffffffffffffff168152602001908152602001600020541015610edc576040517f08c379a00000000000000000000000000000000000000000000000000000000081526004018080602001828103825260148152602001807f496e73756666696369656e742062616c616e636500000000000000000000000081525060200191505060405180910390fd5b610f6a816000808073ffffffffffffffffffffffffffffffffffffffff1673ffffffffffffffffffffffffffffffffffffffff16815260200190815260200160002060003373ffffffffffffffffffffffffffffffffffffffff1673ffffffffffffffffffffffffffffffffffffffff168152602001908152602001600020546138d090919063ffffffff16565b6000808073ffffffffffffffffffffffffffffffffffffffff1673ffffffffffffffffffffffffffffffffffffffff16815260200190815260200160002060003373ffffffffffffffffffffffffffffffffffffffff1673ffffffffffffffffffffffffffffffffffffffff1681526020019081526020016000208190555060003373ffffffffffffffffffffffffffffffffffffffff168260405180600001905060006040518083038185875af1925050503d8060008114611049576040519150601f19603f3d011682016040523d82523d6000602084013e61104e565b606091505b50509050806110c5576040517f08c379a00000000000000000000000000000000000000000000000000000000081526004018080602001828103825260138152602001807f455448207472616e73666572206661696c65640000000000000000000000000081525060200191505060405180910390fd5b3373ffffffffffffffffffffffffffffffffffffffff16600073ffffffffffffffffffffffffffffffffffffffff167ff341246adaac6f497bc2a656f546ab9e182111d630394f0c57c710a59a2cb567846000808073ffffffffffffffffffffffffffffffffffffffff1673ffffffffffffffffffffffffffffffffffffffff16815260200190815260200160002060003373ffffffffffffffffffffffffffffffffffffffff1673ffffffffffffffffffffffffffffffffffffffff16815260200190815260200160002054604051808381526020018281526020019250505060405180910390a3506000600260006101000a81548160ff02191690831515021790555050565b600081565b6000602052816000526040600020602052806000526040600020600091509150505481565b60008060008060008060008060008073ffffffffffffffffffffffffffffffffffffffff16600160008c815260200190815260200160002060010160009054906101000a900473ffffffffffffffffffffffffffffffffffffffff1673ffffffffffffffffffffffffffffffffffffffff1614156112dd576040517f08c379a000000000000000000000000000000000000000000000000000000000815260040180806020018281038252600f8152602001807f4f72646572206e6f7420666f756e64000000000000000000000000000000000081525060200191505060405180910390fd5b6000600160008c8152602001908152602001600020905080600001548160010160009054906101000a900473ffffffffffffffffffffffffffffffffffffffff168260020160009054906101000a900473ffffffffffffffffffffffffffffffffffffffff1683600301548460040160009054906101000a900473ffffffffffffffffffffffffffffffffffffffff16856005015486600601548760070160009054906101000a900460ff168860070160019054906101000a900460ff16995099509950995099509950995099509950509193959799909294969850565b7f000000000000000000000000000000000000000000000000000000000000000081565b600073ffffffffffffffffffffffffffffffffffffffff166001600083815260200190815260200160002060010160009054906101000a900473ffffffffffffffffffffffffffffffffffffffff1673ffffffffffffffffffffffffffffffffffffffff1614156114b8576040517f08c379a000000000000000000000000000000000000000000000000000000000815260040180806020018281038252600f8152602001807f4f72646572206e6f7420666f756e64000000000000000000000000000000000081525060200191505060405180910390fd5b60006001600083815260200190815260200160002090503373ffffffffffffffffffffffffffffffffffffffff168160010160009054906101000a900473ffffffffffffffffffffffffffffffffffffffff1673ffffffffffffffffffffffffffffffffffffffff1614611594576040517f08c379a000000000000000000000000000000000000000000000000000000000815260040180806020018281038252600f8152602001807f4e6f74206f72646572206f776e6572000000000000000000000000000000000081525060200191505060405180910390fd5b8060070160009054906101000a900460ff1615611619576040517f08c379a00000000000000000000000000000000000000000000000000000000081526004018080602001828103825260148152602001807f4f7264657220616c72656164792066696c6c656400000000000000000000000081525060200191505060405180910390fd5b8060070160019054906101000a900460ff161561169e576040517f08c379a00000000000000000000000000000000000000000000000000000000081526004018080602001828103825260178152602001807f4f7264657220616c72656164792063616e63656c6c656400000000000000000081525060200191505060405180910390fd5b60018160070160016101000a81548160ff0219169083151502179055503373ffffffffffffffffffffffffffffffffffffffff16827fb2705df32ac67fc3101f496cd7036bf59074a603544d97d73650b6f09744986a426040518082815260200191505060405180910390a35050565b600260009054906101000a900460ff1615611791576040517f08c379a000000000000000000000000000000000000000000000000000000000815260040180806020018281038252600e8152602001807f5265656e7472616e742063616c6c00000000000000000000000000000000000081525060200191505060405180910390fd5b6001600260006101000a81548160ff02191690831515021790555060003411611822576040517f08c379a000000000000000000000000000000000000000000000000000000000815260040180806020018281038252601d8152602001807f416d6f756e74206d7573742062652067726561746572207468616e203000000081525060200191505060405180910390fd5b6118b0346000808073ffffffffffffffffffffffffffffffffffffffff1673ffffffffffffffffffffffffffffffffffffffff16815260200190815260200160002060003373ffffffffffffffffffffffffffffffffffffffff1673ffffffffffffffffffffffffffffffffffffffff1681526020019081526020016000205461384890919063ffffffff16565b6000808073ffffffffffffffffffffffffffffffffffffffff1673ffffffffffffffffffffffffffffffffffffffff16815260200190815260200160002060003373ffffffffffffffffffffffffffffffffffffffff1673ffffffffffffffffffffffffffffffffffffffff168152602001908152602001600020819055503373ffffffffffffffffffffffffffffffffffffffff16600073ffffffffffffffffffffffffffffffffffffffff167fdcbc1c05240f31ff3ad067ef1ee35ce4997762752e3a095284754544f4c709d7346000808073ffffffffffffffffffffffffffffffffffffffff1673ffffffffffffffffffffffffffffffffffffffff16815260200190815260200160002060003373ffffffffffffffffffffffffffffffffffffffff1673ffffffffffffffffffffffffffffffffffffffff16815260200190815260200160002054604051808381526020018281526020019250505060405180910390a36000600260006101000a81548160ff021916908315150217905550565b600073ffffffffffffffffffffffffffffffffffffffff168473ffffffffffffffffffffffffffffffffffffffff161415611ad8576040517f08c379a00000000000000000000000000000000000000000000000000000000081526004018080602001828103825260188152602001807f496e76616c696420746f6b656e4765742061646472657373000000000000000081525060200191505060405180910390fd5b600073ffffffffffffffffffffffffffffffffffffffff168273ffffffffffffffffffffffffffffffffffffffff161415611b7b576040517f08c379a00000000000000000000000000000000000000000000000000000000081526004018080602001828103825260198152602001807f496e76616c696420746f6b656e4769766520616464726573730000000000000081525060200191505060405180910390fd5b60008311611bd4576040517f08c379a0000000000000000000000000000000000000000000000000000000008152600401808060200182810382526026815260200180613c0d6026913960400191505060405180910390fd5b60008111611c2d576040517f08c379a0000000000000000000000000000000000000000000000000000000008152600401808060200182810382526027815260200180613bc56027913960400191505060405180910390fd5b8173ffffffffffffffffffffffffffffffffffffffff168473ffffffffffffffffffffffffffffffffffffffff161415611ccf576040517f08c379a00000000000000000000000000000000000000000000000000000000081526004018080602001828103825260178152602001807f43616e6e6f742074726164652073616d6520746f6b656e00000000000000000081525060200191505060405180910390fd5b806000808473ffffffffffffffffffffffffffffffffffffffff1673ffffffffffffffffffffffffffffffffffffffff16815260200190815260200160002060003373ffffffffffffffffffffffffffffffffffffffff1673ffffffffffffffffffffffffffffffffffffffff168152602001908152602001600020541015611dc0576040517f08c379a000000000000000000000000000000000000000000000000000000000815260040180806020018281038252601e8152602001807f496e73756666696369656e742062616c616e636520666f72206f72646572000081525060200191505060405180910390fd5b6000611dcf3386868686613953565b9050600073ffffffffffffffffffffffffffffffffffffffff166001600083815260200190815260200160002060010160009054906101000a900473ffffffffffffffffffffffffffffffffffffffff1673ffffffffffffffffffffffffffffffffffffffff1614611ea9576040517f08c379a00000000000000000000000000000000000000000000000000000000081526004018080602001828103825260148152602001807f4f72646572206861736820636f6c6c6973696f6e00000000000000000000000081525060200191505060405180910390fd5b6000604051806101200160405280600081526020013373ffffffffffffffffffffffffffffffffffffffff1681526020018773ffffffffffffffffffffffffffffffffffffffff1681526020018681526020018573ffffffffffffffffffffffffffffffffffffffff16815260200184815260200142815260200160001515815260200160001515815250905080600160008481526020019081526020016000206000820151816000015560208201518160010160006101000a81548173ffffffffffffffffffffffffffffffffffffffff021916908373ffffffffffffffffffffffffffffffffffffffff16021790555060408201518160020160006101000a81548173ffffffffffffffffffffffffffffffffffffffff021916908373ffffffffffffffffffffffffffffffffffffffff1602179055506060820151816003015560808201518160040160006101000a81548173ffffffffffffffffffffffffffffffffffffffff021916908373ffffffffffffffffffffffffffffffffffffffff16021790555060a0820151816005015560c0820151816006015560e08201518160070160006101000a81548160ff0219169083151502179055506101008201518160070160016101000a81548160ff0219169083151502179055509050503373ffffffffffffffffffffffffffffffffffffffff16827f3d46b9d949d6ea84ce33a668daac5c729b5637b68066b62cfa505979e9382d418888888842604051808673ffffffffffffffffffffffffffffffffffffffff1681526020018581526020018473ffffffffffffffffffffffffffffffffffffffff1681526020018381526020018281526020019550505050505060405180910390a3505050505050565b60016020528060005260406000206000915090508060000154908060010160009054906101000a900473ffffffffffffffffffffffffffffffffffffffff16908060020160009054906101000a900473ffffffffffffffffffffffffffffffffffffffff16908060030154908060040160009054906101000a900473ffffffffffffffffffffffffffffffffffffffff16908060050154908060060154908060070160009054906101000a900460ff16908060070160019054906101000a900460ff16905089565b600260009054906101000a900460ff1615612279576040517f08c379a000000000000000000000000000000000000000000000000000000000815260040180806020018281038252600e8152602001807f5265656e7472616e742063616c6c00000000000000000000000000000000000081525060200191505060405180910390fd5b6001600260006101000a81548160ff021916908315150217905550600073ffffffffffffffffffffffffffffffffffffffff168273ffffffffffffffffffffffffffffffffffffffff161415612337576040517f08c379a00000000000000000000000000000000000000000000000000000000081526004018080602001828103825260198152602001807f557365207769746864726177457468657220666f72204554480000000000000081525060200191505060405180910390fd5b600073ffffffffffffffffffffffffffffffffffffffff168273ffffffffffffffffffffffffffffffffffffffff1614156123da576040517f08c379a00000000000000000000000000000000000000000000000000000000081526004018080602001828103825260158152602001807f496e76616c696420746f6b656e2061646472657373000000000000000000000081525060200191505060405180910390fd5b60008111612450576040517f08c379a000000000000000000000000000000000000000000000000000000000815260040180806020018281038252601d8152602001807f416d6f756e74206d7573742062652067726561746572207468616e203000000081525060200191505060405180910390fd5b806000808473ffffffffffffffffffffffffffffffffffffffff1673ffffffffffffffffffffffffffffffffffffffff16815260200190815260200160002060003373ffffffffffffffffffffffffffffffffffffffff1673ffffffffffffffffffffffffffffffffffffffff168152602001908152602001600020541015612541576040517f08c379a00000000000000000000000000000000000000000000000000000000081526004018080602001828103825260148152602001807f496e73756666696369656e742062616c616e636500000000000000000000000081525060200191505060405180910390fd5b6125cf816000808573ffffffffffffffffffffffffffffffffffffffff1673ffffffffffffffffffffffffffffffffffffffff16815260200190815260200160002060003373ffffffffffffffffffffffffffffffffffffffff1673ffffffffffffffffffffffffffffffffffffffff168152602001908152602001600020546138d090919063ffffffff16565b6000808473ffffffffffffffffffffffffffffffffffffffff1673ffffffffffffffffffffffffffffffffffffffff16815260200190815260200160002060003373ffffffffffffffffffffffffffffffffffffffff1673ffffffffffffffffffffffffffffffffffffffff168152602001908152602001600020819055508173ffffffffffffffffffffffffffffffffffffffff1663a9059cbb33836040518363ffffffff167c0100000000000000000000000000000000000000000000000000000000028152600401808373ffffffffffffffffffffffffffffffffffffffff16815260200182815260200192505050602060405180830381600087803b1580156126db57600080fd5b505af11580156126ef573d6000803e3d6000fd5b505050506040513d602081101561270557600080fd5b8101908080519060200190929190505050612788576040517f08c379a000000000000000000000000000000000000000000000000000000000815260040180806020018281038252600f8152602001807f5472616e73666572206661696c6564000000000000000000000000000000000081525060200191505060405180910390fd5b3373ffffffffffffffffffffffffffffffffffffffff168273ffffffffffffffffffffffffffffffffffffffff167ff341246adaac6f497bc2a656f546ab9e182111d630394f0c57c710a59a2cb567836000808773ffffffffffffffffffffffffffffffffffffffff1673ffffffffffffffffffffffffffffffffffffffff16815260200190815260200160002060003373ffffffffffffffffffffffffffffffffffffffff1673ffffffffffffffffffffffffffffffffffffffff16815260200190815260200160002054604051808381526020018281526020019250505060405180910390a36000600260006101000a81548160ff0219169083151502179055505050565b7f000000000000000000000000000000000000000000000000000000000000000081565b600260009054906101000a900460ff1615612936576040517f08c379a000000000000000000000000000000000000000000000000000000000815260040180806020018281038252600e8152602001807f5265656e7472616e742063616c6c00000000000000000000000000000000000081525060200191505060405180910390fd5b6001600260006101000a81548160ff021916908315150217905550600073ffffffffffffffffffffffffffffffffffffffff166001600083815260200190815260200160002060010160009054906101000a900473ffffffffffffffffffffffffffffffffffffffff1673ffffffffffffffffffffffffffffffffffffffff161415612a2a576040517f08c379a000000000000000000000000000000000000000000000000000000000815260040180806020018281038252600f8152602001807f4f72646572206e6f7420666f756e64000000000000000000000000000000000081525060200191505060405180910390fd5b6000600160008381526020019081526020016000206005015411612ab6576040517f08c379a000000000000000000000000000000000000000000000000000000000815260040180806020018281038252601a8152602001807f4f7264657220746f6b656e47697665416d6f756e74206973203000000000000081525060200191505060405180910390fd5b60006001600083815260200190815260200160002090508060070160009054906101000a900460ff1615612b52576040517f08c379a00000000000000000000000000000000000000000000000000000000081526004018080602001828103825260148152602001807f4f7264657220616c72656164792066696c6c656400000000000000000000000081525060200191505060405180910390fd5b8060070160019054906101000a900460ff1615612bd7576040517f08c379a000000000000000000000000000000000000000000000000000000000815260040180806020018281038252600f8152602001807f4f726465722063616e63656c6c6564000000000000000000000000000000000081525060200191505060405180910390fd5b3373ffffffffffffffffffffffffffffffffffffffff168160010160009054906101000a900473ffffffffffffffffffffffffffffffffffffffff1673ffffffffffffffffffffffffffffffffffffffff161415612c9d576040517f08c379a00000000000000000000000000000000000000000000000000000000081526004018080602001828103825260158152602001807f43616e6e6f742066696c6c206f776e206f72646572000000000000000000000081525060200191505060405180910390fd5b6000612cea612710612cdc7f00000000000000000000000000000000000000000000000000000000000000008560030154613ab590919063ffffffff16565b613b3b90919063ffffffff16565b905081600501546000808460040160009054906101000a900473ffffffffffffffffffffffffffffffffffffffff1673ffffffffffffffffffffffffffffffffffffffff1673ffffffffffffffffffffffffffffffffffffffff16815260200190815260200160002060008460010160009054906101000a900473ffffffffffffffffffffffffffffffffffffffff1673ffffffffffffffffffffffffffffffffffffffff1673ffffffffffffffffffffffffffffffffffffffff168152602001908152602001600020541015612e29576040517f08c379a00000000000000000000000000000000000000000000000000000000081526004018080602001828103825260208152602001807f4f72646572206f776e657220696e73756666696369656e742062616c616e636581525060200191505060405180910390fd5b612e4081836003015461384890919063ffffffff16565b6000808460020160009054906101000a900473ffffffffffffffffffffffffffffffffffffffff1673ffffffffffffffffffffffffffffffffffffffff1673ffffffffffffffffffffffffffffffffffffffff16815260200190815260200160002060003373ffffffffffffffffffffffffffffffffffffffff1673ffffffffffffffffffffffffffffffffffffffff168152602001908152602001600020541015612f54576040517f08c379a000000000000000000000000000000000000000000000000000000000815260040180806020018281038252601b8152602001807f46696c6c657220696e73756666696369656e742062616c616e6365000000000081525060200191505060405180910390fd5b613026816000808560020160009054906101000a900473ffffffffffffffffffffffffffffffffffffffff1673ffffffffffffffffffffffffffffffffffffffff1673ffffffffffffffffffffffffffffffffffffffff16815260200190815260200160002060007f000000000000000000000000000000000000000000000000000000000000000073ffffffffffffffffffffffffffffffffffffffff1673ffffffffffffffffffffffffffffffffffffffff1681526020019081526020016000205461384890919063ffffffff16565b6000808460020160009054906101000a900473ffffffffffffffffffffffffffffffffffffffff1673ffffffffffffffffffffffffffffffffffffffff1673ffffffffffffffffffffffffffffffffffffffff16815260200190815260200160002060007f000000000000000000000000000000000000000000000000000000000000000073ffffffffffffffffffffffffffffffffffffffff1673ffffffffffffffffffffffffffffffffffffffff168152602001908152602001600020819055506131c382600301546000808560020160009054906101000a900473ffffffffffffffffffffffffffffffffffffffff1673ffffffffffffffffffffffffffffffffffffffff1673ffffffffffffffffffffffffffffffffffffffff16815260200190815260200160002060008560010160009054906101000a900473ffffffffffffffffffffffffffffffffffffffff1673ffffffffffffffffffffffffffffffffffffffff1673ffffffffffffffffffffffffffffffffffffffff1681526020019081526020016000205461384890919063ffffffff16565b6000808460020160009054906101000a900473ffffffffffffffffffffffffffffffffffffffff1673ffffffffffffffffffffffffffffffffffffffff1673ffffffffffffffffffffffffffffffffffffffff16815260200190815260200160002060008460010160009054906101000a900473ffffffffffffffffffffffffffffffffffffffff1673ffffffffffffffffffffffffffffffffffffffff1673ffffffffffffffffffffffffffffffffffffffff168152602001908152602001600020819055506133526132a482846003015461384890919063ffffffff16565b6000808560020160009054906101000a900473ffffffffffffffffffffffffffffffffffffffff1673ffffffffffffffffffffffffffffffffffffffff1673ffffffffffffffffffffffffffffffffffffffff16815260200190815260200160002060003373ffffffffffffffffffffffffffffffffffffffff1673ffffffffffffffffffffffffffffffffffffffff168152602001908152602001600020546138d090919063ffffffff16565b6000808460020160009054906101000a900473ffffffffffffffffffffffffffffffffffffffff1673ffffffffffffffffffffffffffffffffffffffff1673ffffffffffffffffffffffffffffffffffffffff16815260200190815260200160002060003373ffffffffffffffffffffffffffffffffffffffff1673ffffffffffffffffffffffffffffffffffffffff168152602001908152602001600020819055506134cf82600501546000808560040160009054906101000a900473ffffffffffffffffffffffffffffffffffffffff1673ffffffffffffffffffffffffffffffffffffffff1673ffffffffffffffffffffffffffffffffffffffff16815260200190815260200160002060008560010160009054906101000a900473ffffffffffffffffffffffffffffffffffffffff1673ffffffffffffffffffffffffffffffffffffffff1673ffffffffffffffffffffffffffffffffffffffff168152602001908152602001600020546138d090919063ffffffff16565b6000808460040160009054906101000a900473ffffffffffffffffffffffffffffffffffffffff1673ffffffffffffffffffffffffffffffffffffffff1673ffffffffffffffffffffffffffffffffffffffff16815260200190815260200160002060008460010160009054906101000a900473ffffffffffffffffffffffffffffffffffffffff1673ffffffffffffffffffffffffffffffffffffffff1673ffffffffffffffffffffffffffffffffffffffff1681526020019081526020016000208190555061364c82600501546000808560040160009054906101000a900473ffffffffffffffffffffffffffffffffffffffff1673ffffffffffffffffffffffffffffffffffffffff1673ffffffffffffffffffffffffffffffffffffffff16815260200190815260200160002060003373ffffffffffffffffffffffffffffffffffffffff1673ffffffffffffffffffffffffffffffffffffffff1681526020019081526020016000205461384890919063ffffffff16565b6000808460040160009054906101000a900473ffffffffffffffffffffffffffffffffffffffff1673ffffffffffffffffffffffffffffffffffffffff1673ffffffffffffffffffffffffffffffffffffffff16815260200190815260200160002060003373ffffffffffffffffffffffffffffffffffffffff1673ffffffffffffffffffffffffffffffffffffffff1681526020019081526020016000208190555060018260070160006101000a81548160ff0219169083151502179055503373ffffffffffffffffffffffffffffffffffffffff168260010160009054906101000a900473ffffffffffffffffffffffffffffffffffffffff1673ffffffffffffffffffffffffffffffffffffffff16847fe8b3c84beb36a2f51c5efbfb92e599d4dcb314a518fbc8a768dc09d1f0b357a0856003015442604051808381526020018281526020019250505060405180910390a450506000600260006101000a81548160ff02191690831515021790555050565b60008060008473ffffffffffffffffffffffffffffffffffffffff1673ffffffffffffffffffffffffffffffffffffffff16815260200190815260200160002060008373ffffffffffffffffffffffffffffffffffffffff1673ffffffffffffffffffffffffffffffffffffffff16815260200190815260200160002054905092915050565b6000808284019050838110156138c6576040517f08c379a000000000000000000000000000000000000000000000000000000000815260040180806020018281038252601b8152602001807f536166654d6174683a206164646974696f6e206f766572666c6f77000000000081525060200191505060405180910390fd5b8091505092915050565b600082821115613948576040517f08c379a000000000000000000000000000000000000000000000000000000000815260040180806020018281038252601e8152602001807f536166654d6174683a207375627472616374696f6e206f766572666c6f77000081525060200191505060405180910390fd5b818303905092915050565b60008585858585424441433330604051602001808c73ffffffffffffffffffffffffffffffffffffffff166c010000000000000000000000000281526014018b73ffffffffffffffffffffffffffffffffffffffff166c010000000000000000000000000281526014018a81526020018973ffffffffffffffffffffffffffffffffffffffff166c010000000000000000000000000281526014018881526020018781526020018681526020018573ffffffffffffffffffffffffffffffffffffffff166c010000000000000000000000000281526014018481526020018373ffffffffffffffffffffffffffffffffffffffff166c010000000000000000000000000281526014018273ffffffffffffffffffffffffffffffffffffffff166c010000000000000000000000000281526014019b50505050505050505050505060405160208183030381529060405280519060200120905095945050505050565b600080831415613ac85760009050613b35565b6000828402905082848281613ad957fe5b0414613b30576040517f08c379a0000000000000000000000000000000000000000000000000000000008152600401808060200182810382526021815260200180613bec6021913960400191505060405180910390fd5b809150505b92915050565b6000808211613bb2576040517f08c379a000000000000000000000000000000000000000000000000000000000815260040180806020018281038252601a8152602001807f536166654d6174683a206469766973696f6e206279207a65726f00000000000081525060200191505060405180910390fd5b818381613bbb57fe5b0490509291505056fe546f6b656e4769766520616d6f756e74206d7573742062652067726561746572207468616e2030536166654d6174683a206d756c7469706c69636174696f6e206f766572666c6f77546f6b656e47657420616d6f756e74206d7573742062652067726561746572207468616e2030a2646970667358221220050e1944cbd978b271082acc8d10637180fadfda3daf98901d83f15e9996fadd64736f6c63430007060033",
  "immutableReferences": {
    "363": [
      {
        "length": 32,
        "start": 5053
      },
      {
        "length": 32,
        "start": 12222
      },
      {
        "length": 32,
        "start": 12428
      }
    ],
    "365": [
      {
        "length": 32,
        "start": 10385
      },
      {
        "length": 32,
        "start": 11434
      }
    ]
  },
  "source": "// SPDX-License-Identifier: MIT\r\npragma solidity >=0.4.22 <0.9.0;\r\nimport \"openzeppelin-solidity/contracts/math/SafeMath.sol\";\r\n\r\nimport \"./richardToken.sol\";\r\n\r\ncontract Exchange {\r\n    using SafeMath for uint256;\r\n    \r\n    // \r\n    address public immutable feeAccount;\r\n    //  (10000 = 100%)\r\n    uint256 public immutable feePercentage;\r\n    \r\n    // ETH \r\n    address public constant ETHER = address(0);\r\n    \r\n    //  [][] => \r\n    mapping(address => mapping(address => uint256)) public tokens;\r\n    \r\n    //  - \r\n    struct Order {\r\n        uint256 id;                    // ID\r\n        address user;                  // \r\n        address tokenGet;              // \r\n        uint256 tokenGetAmount;        // \r\n        address tokenGive;             // \r\n        uint256 tokenGiveAmount;       // \r\n        uint256 timestamp;             // \r\n        bool filled;                   // \r\n        bool cancelled;                // \r\n    }\r\n    \r\n    // \r\n    mapping(bytes32 => Order) public orders;\r\n    \r\n    // \r\n    bool private locked;\r\n\r\n    constructor(address _feeAccount, uint256 _feePercentage) {\r\n        require(_feeAccount != address(0), \"Invalid fee account\");\r\n        require(_feePercentage <= 10000, \"Fee percentage too high\"); //  100%\r\n        feeAccount = _feeAccount;\r\n        feePercentage = _feePercentage;\r\n    }\r\n    \r\n    // \r\n    modifier nonReentrant() {\r\n        require(!locked, \"Reentrant call\");\r\n        locked = true;\r\n        _;\r\n        locked = false;\r\n    }\r\n    \r\n    //  -  nonce\r\n    function generateOrderHash(\r\n        address _user,\r\n        address _tokenGet,\r\n        uint256 _tokenGetAmount,\r\n        address _tokenGive,\r\n        uint256 _tokenGiveAmount\r\n    ) private view returns (bytes32) {\r\n        return keccak256(abi.encodePacked(\r\n            _user,\r\n            _tokenGet,\r\n            _tokenGetAmount,\r\n            _tokenGive,\r\n            _tokenGiveAmount,\r\n            block.timestamp,\r\n            block.difficulty,\r\n            block.coinbase,\r\n            block.number,\r\n            msg.sender,\r\n            address(this)\r\n        ));\r\n    }\r\n    \r\n    //  -  gas\r\n    event Deposit(address indexed token, address indexed user, uint256 amount, uint256 balance);\r\n    event Withdraw(address indexed token, address indexed user, uint256 amount, uint256 balance);\r\n    event OrderCreated(\r\n        bytes32 indexed orderHash, \r\n        address indexed user, \r\n        address tokenGet, \r\n        uint256 tokenGetAmount, \r\n        address tokenGive, \r\n        uint256 tokenGiveAmount, \r\n        uint256 timestamp\r\n    );\r\n    event OrderCancelled(\r\n        bytes32 indexed orderHash,\r\n         address indexed user,\r\n         uint256 timestamp\r\n         );\r\n    event OrderFilled(\r\n        bytes32 indexed orderHash, \r\n        address indexed user, \r\n        address indexed filler, \r\n        uint256 amount,\r\n        uint256 timestamp\r\n    );\r\n\r\n    // ETH  - \r\n    function depositEther() public payable nonReentrant {\r\n        require(msg.value > 0, \"Amount must be greater than 0\");\r\n        tokens[ETHER][msg.sender] = tokens[ETHER][msg.sender].add(msg.value);\r\n        emit Deposit(ETHER, msg.sender, msg.value, tokens[ETHER][msg.sender]);\r\n    }\r\n    \r\n    //  -  gas \r\n    function depositToken(address _token, uint256 _amount) public nonReentrant {\r\n        require(_token != ETHER, \"Use depositEther for ETH\");\r\n        require(_token != address(0), \"Invalid token address\");\r\n        require(_amount > 0, \"Amount must be greater than 0\");\r\n        \r\n        // \r\n        tokens[_token][msg.sender] = tokens[_token][msg.sender].add(_amount);\r\n        \r\n        // \r\n        require(RichardToken(_token).transferFrom(msg.sender, address(this), _amount), \"Transfer failed\");\r\n        \r\n        emit Deposit(_token, msg.sender, _amount, tokens[_token][msg.sender]);\r\n    }\r\n    \r\n    // ETH  - \r\n    function withdrawEther(uint256 _amount) public nonReentrant {\r\n        require(_amount > 0, \"Amount must be greater than 0\");\r\n        require(tokens[ETHER][msg.sender] >= _amount, \"Insufficient balance\");\r\n        \r\n        // \r\n        tokens[ETHER][msg.sender] = tokens[ETHER][msg.sender].sub(_amount);\r\n        \r\n        //  call  transfer gas \r\n        (bool success, ) = payable(msg.sender).call{value: _amount}(\"\");\r\n        require(success, \"ETH transfer failed\");\r\n        \r\n        emit Withdraw(ETHER, msg.sender, _amount, tokens[ETHER][msg.sender]);\r\n    }\r\n    \r\n    //  - \r\n    function withdrawToken(address _token, uint256 _amount) public nonReentrant {\r\n        require(_token != ETHER, \"Use withdrawEther for ETH\");\r\n        require(_token != address(0), \"Invalid token address\");\r\n        require(_amount > 0, \"Amount must be greater than 0\");\r\n        require(tokens[_token][msg.sender] >= _amount, \"Insufficient balance\");\r\n        \r\n        // \r\n        tokens[_token][msg.sender] = tokens[_token][msg.sender].sub(_amount);\r\n        \r\n        // \r\n        require(RichardToken(_token).transfer(msg.sender, _amount), \"Transfer failed\");\r\n        \r\n        emit Withdraw(_token, msg.sender, _amount, tokens[_token][msg.sender]);\r\n    }\r\n\r\n    //  -  gas\r\n    function balanceOf(address _token, address _user) public view returns (uint256) {\r\n        return tokens[_token][_user];\r\n    }\r\n    \r\n    //  -  ID  (exchange )\r\n    function makeOrder(\r\n        address _tokenGet, \r\n        uint256 _tokenGetAmount, \r\n        address _tokenGive, \r\n        uint256 _tokenGiveAmount\r\n    ) public {\r\n        require(_tokenGet != address(0), \"Invalid tokenGet address\");\r\n        require(_tokenGive != address(0), \"Invalid tokenGive address\");\r\n        require(_tokenGetAmount > 0, \"TokenGet amount must be greater than 0\");\r\n        require(_tokenGiveAmount > 0, \"TokenGive amount must be greater than 0\");\r\n        require(_tokenGet != _tokenGive, \"Cannot trade same token\");\r\n        \r\n        // \r\n        require(tokens[_tokenGive][msg.sender] >= _tokenGiveAmount, \"Insufficient balance for order\");\r\n        \r\n        // \r\n        bytes32 orderHash = generateOrderHash(\r\n            msg.sender,\r\n            _tokenGet,\r\n            _tokenGetAmount,\r\n            _tokenGive,\r\n            _tokenGiveAmount\r\n        );\r\n        \r\n        // \r\n        require(orders[orderHash].user == address(0), \"Order hash collision\");\r\n        \r\n        // \r\n        Order memory newOrder = Order({\r\n            id: 0, //  ID\r\n            user: msg.sender,\r\n            tokenGet: _tokenGet,\r\n            tokenGetAmount: _tokenGetAmount,\r\n            tokenGive: _tokenGive,\r\n            tokenGiveAmount: _tokenGiveAmount,\r\n            timestamp: block.timestamp,\r\n            filled: false,\r\n            cancelled: false\r\n        });\r\n        \r\n        // \r\n        orders[orderHash] = newOrder;\r\n        \r\n        emit OrderCreated(orderHash, msg.sender, _tokenGet, _tokenGetAmount, _tokenGive, _tokenGiveAmount, block.timestamp);\r\n    }\r\n    \r\n    //  -  ID\r\n    function cancelOrder(bytes32 _orderHash) public {\r\n        require(orders[_orderHash].user != address(0), \"Order not found\");\r\n        Order storage order = orders[_orderHash];\r\n        require(order.user == msg.sender, \"Not order owner\");\r\n        require(!order.filled, \"Order already filled\");\r\n        require(!order.cancelled, \"Order already cancelled\");\r\n        \r\n        order.cancelled = true;\r\n        emit OrderCancelled(_orderHash, msg.sender, block.timestamp);\r\n    }\r\n    \r\n    //  -  ID\r\n    function fillOrder(bytes32 _orderHash) public nonReentrant {\r\n        require(orders[_orderHash].user != address(0), \"Order not found\");\r\n        require(orders[_orderHash].tokenGiveAmount > 0, \"Order tokenGiveAmount is 0\");\r\n        \r\n        Order storage order = orders[_orderHash];\r\n        require(!order.filled, \"Order already filled\");\r\n        require(!order.cancelled, \"Order cancelled\");\r\n        require(order.user != msg.sender, \"Cannot fill own order\");\r\n\r\n                // \r\n        uint256 feeAmount = order.tokenGetAmount.mul(feePercentage).div(10000);\r\n        \r\n        // \r\n        require(tokens[order.tokenGive][order.user] >= order.tokenGiveAmount, \"Order owner insufficient balance\");\r\n        require(tokens[order.tokenGet][msg.sender] >= order.tokenGetAmount.add(feeAmount), \"Filler insufficient balance\");\r\n        \r\n        // : 1 RTK: 100ETH  ,\r\n        // \r\n        tokens[order.tokenGet][feeAccount] = tokens[order.tokenGet][feeAccount].add(feeAmount);\r\n        // \r\n        // tokens[order.tokenGet][msg.sender] = tokens[order.tokenGet][msg.sender].sub(feeAmount);\r\n\r\n        //  order\r\n        // \r\n        // getgive\r\n        // tokenget\r\n        tokens[order.tokenGet][order.user] = tokens[order.tokenGet][order.user].add(order.tokenGetAmount);\r\n        // tokenGet\r\n        tokens[order.tokenGet][msg.sender] = tokens[order.tokenGet][msg.sender].sub(order.tokenGetAmount.add(feeAmount));\r\n        // \r\n        tokens[order.tokenGive][order.user] = tokens[order.tokenGive][order.user].sub(order.tokenGiveAmount);\r\n        // tokenGive\r\n        tokens[order.tokenGive][msg.sender] = tokens[order.tokenGive][msg.sender].add(order.tokenGiveAmount);        \r\n        // \r\n        order.filled = true;\r\n        emit OrderFilled(_orderHash, order.user, msg.sender, order.tokenGetAmount, block.timestamp);\r\n    }\r\n    \r\n    // \r\n    function getOrder(bytes32 _orderHash) public view returns (\r\n        uint256 id,\r\n        address user,\r\n        address tokenGet,\r\n        uint256 tokenGetAmount,\r\n        address tokenGive,\r\n        uint256 tokenGiveAmount,\r\n        uint256 timestamp,\r\n        bool filled,\r\n        bool cancelled\r\n    ) {\r\n        require(orders[_orderHash].user != address(0), \"Order not found\");\r\n        Order storage order = orders[_orderHash];\r\n        return (\r\n            order.id,\r\n            order.user,\r\n            order.tokenGet,\r\n            order.tokenGetAmount,\r\n            order.tokenGive,\r\n            order.tokenGiveAmount,\r\n            order.timestamp,\r\n            order.filled,\r\n            order.cancelled\r\n        );\r\n    }\r\n    \r\n    // \r\n    function orderExists(bytes32 _orderHash) public view returns (bool) {\r\n        return orders[_orderHash].user != address(0);\r\n    }\r\n}",
  "sourcePath": "C:\\Users\\Administrator\\Desktop\\blog-anything\\contracts\\exchange.sol",
  "compiler": {
    "name": "solc",
    "version": "0.7.6+commit.7338295f.Emscripten.clang"
  },
  "schemaVersion": "3.4.16",
  "updatedAt": "2025-09-23T14:20:53.756Z",
  "networkType": "ethereum",
  "devdoc": {
    "kind": "dev",
    "methods": {},
    "version": 1
  },
  "userdoc": {
    "kind": "user",
    "methods": {},
    "version": 1
  }
}