{
  "contractName": "RichardToken",
  "abi": [
    {
      "inputs": [],
      "stateMutability": "nonpayable",
      "type": "constructor"
    },
    {
      "anonymous": false,
      "inputs": [
        {
          "indexed": true,
          "internalType": "address",
          "name": "owner",
          "type": "address"
        },
        {
          "indexed": true,
          "internalType": "address",
          "name": "spender",
          "type": "address"
        },
        {
          "indexed": false,
          "internalType": "uint256",
          "name": "value",
          "type": "uint256"
        }
      ],
      "name": "Approval",
      "type": "event"
    },
    {
      "anonymous": false,
      "inputs": [
        {
          "indexed": true,
          "internalType": "address",
          "name": "from",
          "type": "address"
        },
        {
          "indexed": true,
          "internalType": "address",
          "name": "to",
          "type": "address"
        },
        {
          "indexed": false,
          "internalType": "uint256",
          "name": "value",
          "type": "uint256"
        }
      ],
      "name": "Transfer",
      "type": "event"
    },
    {
      "inputs": [],
      "name": "DECIMALS",
      "outputs": [
        {
          "internalType": "uint8",
          "name": "",
          "type": "uint8"
        }
      ],
      "stateMutability": "view",
      "type": "function",
      "constant": true
    },
    {
      "inputs": [],
      "name": "NAME",
      "outputs": [
        {
          "internalType": "string",
          "name": "",
          "type": "string"
        }
      ],
      "stateMutability": "view",
      "type": "function",
      "constant": true
    },
    {
      "inputs": [],
      "name": "SYMBOL",
      "outputs": [
        {
          "internalType": "string",
          "name": "",
          "type": "string"
        }
      ],
      "stateMutability": "view",
      "type": "function",
      "constant": true
    },
    {
      "inputs": [
        {
          "internalType": "address",
          "name": "",
          "type": "address"
        },
        {
          "internalType": "address",
          "name": "",
          "type": "address"
        }
      ],
      "name": "allowance",
      "outputs": [
        {
          "internalType": "uint256",
          "name": "",
          "type": "uint256"
        }
      ],
      "stateMutability": "view",
      "type": "function",
      "constant": true
    },
    {
      "inputs": [
        {
          "internalType": "address",
          "name": "",
          "type": "address"
        }
      ],
      "name": "balanceOf",
      "outputs": [
        {
          "internalType": "uint256",
          "name": "",
          "type": "uint256"
        }
      ],
      "stateMutability": "view",
      "type": "function",
      "constant": true
    },
    {
      "inputs": [],
      "name": "totalSupply",
      "outputs": [
        {
          "internalType": "uint256",
          "name": "",
          "type": "uint256"
        }
      ],
      "stateMutability": "view",
      "type": "function",
      "constant": true
    },
    {
      "inputs": [
        {
          "internalType": "address",
          "name": "to",
          "type": "address"
        },
        {
          "internalType": "uint256",
          "name": "value",
          "type": "uint256"
        }
      ],
      "name": "transfer",
      "outputs": [
        {
          "internalType": "bool",
          "name": "success",
          "type": "bool"
        }
      ],
      "stateMutability": "nonpayable",
      "type": "function"
    },
    {
      "inputs": [
        {
          "internalType": "address",
          "name": "from",
          "type": "address"
        },
        {
          "internalType": "address",
          "name": "to",
          "type": "address"
        },
        {
          "internalType": "uint256",
          "name": "value",
          "type": "uint256"
        }
      ],
      "name": "transferFrom",
      "outputs": [
        {
          "internalType": "bool",
          "name": "success",
          "type": "bool"
        }
      ],
      "stateMutability": "nonpayable",
      "type": "function"
    },
    {
      "inputs": [
        {
          "internalType": "address",
          "name": "spender",
          "type": "address"
        },
        {
          "internalType": "uint256",
          "name": "value",
          "type": "uint256"
        }
      ],
      "name": "approve",
      "outputs": [
        {
          "internalType": "bool",
          "name": "success",
          "type": "bool"
        }
      ],
      "stateMutability": "nonpayable",
      "type": "function"
    },
    {
      "inputs": [
        {
          "internalType": "address",
          "name": "spender",
          "type": "address"
        },
        {
          "internalType": "uint256",
          "name": "addedValue",
          "type": "uint256"
        }
      ],
      "name": "increaseAllowance",
      "outputs": [
        {
          "internalType": "bool",
          "name": "success",
          "type": "bool"
        }
      ],
      "stateMutability": "nonpayable",
      "type": "function"
    },
    {
      "inputs": [
        {
          "internalType": "address",
          "name": "spender",
          "type": "address"
        },
        {
          "internalType": "uint256",
          "name": "subtractedValue",
          "type": "uint256"
        }
      ],
      "name": "decreaseAllowance",
      "outputs": [
        {
          "internalType": "bool",
          "name": "success",
          "type": "bool"
        }
      ],
      "stateMutability": "nonpayable",
      "type": "function"
    },
    {
      "inputs": [
        {
          "internalType": "address",
          "name": "account",
          "type": "address"
        }
      ],
      "name": "getBalance",
      "outputs": [
        {
          "internalType": "uint256",
          "name": "",
          "type": "uint256"
        }
      ],
      "stateMutability": "view",
      "type": "function",
      "constant": true
    },
    {
      "inputs": [
        {
          "internalType": "address",
          "name": "owner",
          "type": "address"
        },
        {
          "internalType": "address",
          "name": "spender",
          "type": "address"
        }
      ],
      "name": "getAllowance",
      "outputs": [
        {
          "internalType": "uint256",
          "name": "",
          "type": "uint256"
        }
      ],
      "stateMutability": "view",
      "type": "function",
      "constant": true
    },
    {
      "inputs": [],
      "name": "getTotalSupply",
      "outputs": [
        {
          "internalType": "uint256",
          "name": "",
          "type": "uint256"
        }
      ],
      "stateMutability": "view",
      "type": "function",
      "constant": true
    }
  ],
  "bytecode": "0x60a060405234801561001057600080fd5b506000601260ff16600a0a6305f5e1000290508060808181525050806000803373ffffffffffffffffffffffffffffffffffffffff1673ffffffffffffffffffffffffffffffffffffffff168152602001908152602001600020819055503373ffffffffffffffffffffffffffffffffffffffff16600073ffffffffffffffffffffffffffffffffffffffff167fddf252ad1be2c89b69c2b068fc378daa952ba7f163c4a11628f55a4df523b3ef836040518082815260200191505060405180910390a350608051611aac6100f4600039806108e2528061162f5250611aac6000f3fe608060405234801561001057600080fd5b5060043610610107576000357c010000000000000000000000000000000000000000000000000000000090048063a3f4df7e116100a9578063c4e41b2211610083578063c4e41b22146104b2578063dd62ed3e146104d0578063f76f8d7814610548578063f8b2cb4f146105cb57610107565b8063a3f4df7e14610367578063a457c2d7146103ea578063a9059cbb1461044e57610107565b806323b872dd116100e557806323b872dd146102065780632e0f26251461028a57806339509351146102ab57806370a082311461030f57610107565b8063095ea7b31461010c5780630af4187d1461017057806318160ddd146101e8575b600080fd5b6101586004803603604081101561012257600080fd5b81019080803573ffffffffffffffffffffffffffffffffffffffff16906020019092919080359060200190929190505050610623565b60405180821515815260200191505060405180910390f35b6101d26004803603604081101561018657600080fd5b81019080803573ffffffffffffffffffffffffffffffffffffffff169060200190929190803573ffffffffffffffffffffffffffffffffffffffff169060200190929190505050610859565b6040518082815260200191505060405180910390f35b6101f06108e0565b6040518082815260200191505060405180910390f35b6102726004803603606081101561021c57600080fd5b81019080803573ffffffffffffffffffffffffffffffffffffffff169060200190929190803573ffffffffffffffffffffffffffffffffffffffff16906020019092919080359060200190929190505050610904565b60405180821515815260200191505060405180910390f35b610292610e27565b604051808260ff16815260200191505060405180910390f35b6102f7600480360360408110156102c157600080fd5b81019080803573ffffffffffffffffffffffffffffffffffffffff16906020019092919080359060200190929190505050610e2c565b60405180821515815260200191505060405180910390f35b6103516004803603602081101561032557600080fd5b81019080803573ffffffffffffffffffffffffffffffffffffffff1690602001909291905050506110f6565b6040518082815260200191505060405180910390f35b61036f61110e565b6040518080602001828103825283818151815260200191508051906020019080838360005b838110156103af578082015181840152602081019050610394565b50505050905090810190601f1680156103dc5780820380516001836020036101000a031916815260200191505b509250505060405180910390f35b6104366004803603604081101561040057600080fd5b81019080803573ffffffffffffffffffffffffffffffffffffffff16906020019092919080359060200190929190505050611147565b60405180821515815260200191505060405180910390f35b61049a6004803603604081101561046457600080fd5b81019080803573ffffffffffffffffffffffffffffffffffffffff16906020019092919080359060200190929190505050611461565b60405180821515815260200191505060405180910390f35b6104ba61162b565b6040518082815260200191505060405180910390f35b610532600480360360408110156104e657600080fd5b81019080803573ffffffffffffffffffffffffffffffffffffffff169060200190929190803573ffffffffffffffffffffffffffffffffffffffff169060200190929190505050611653565b6040518082815260200191505060405180910390f35b610550611678565b6040518080602001828103825283818151815260200191508051906020019080838360005b83811015610590578082015181840152602081019050610575565b50505050905090810190601f1680156105bd5780820380516001836020036101000a031916815260200191505b509250505060405180910390f35b61060d600480360360208110156105e157600080fd5b81019080803573ffffffffffffffffffffffffffffffffffffffff1690602001909291905050506116b1565b6040518082815260200191505060405180910390f35b60008073ffffffffffffffffffffffffffffffffffffffff168373ffffffffffffffffffffffffffffffffffffffff1614156106c7576040517f08c379a00000000000000000000000000000000000000000000000000000000081526004018080602001828103825260178152602001807f417070726f766520746f207a65726f206164647265737300000000000000000081525060200191505060405180910390fd5b3373ffffffffffffffffffffffffffffffffffffffff168373ffffffffffffffffffffffffffffffffffffffff161415610769576040517f08c379a000000000000000000000000000000000000000000000000000000000815260040180806020018281038252600f8152602001807f417070726f766520746f2073656c66000000000000000000000000000000000081525060200191505060405180910390fd5b81600160003373ffffffffffffffffffffffffffffffffffffffff1673ffffffffffffffffffffffffffffffffffffffff16815260200190815260200160002060008573ffffffffffffffffffffffffffffffffffffffff1673ffffffffffffffffffffffffffffffffffffffff168152602001908152602001600020819055508273ffffffffffffffffffffffffffffffffffffffff163373ffffffffffffffffffffffffffffffffffffffff167f8c5be1e5ebec7d5bd14f71427d1e84f3dd0314c0f7b2291e5b200ac8c7c3b925846040518082815260200191505060405180910390a36001905092915050565b6000600160008473ffffffffffffffffffffffffffffffffffffffff1673ffffffffffffffffffffffffffffffffffffffff16815260200190815260200160002060008373ffffffffffffffffffffffffffffffffffffffff1673ffffffffffffffffffffffffffffffffffffffff16815260200190815260200160002054905092915050565b7f000000000000000000000000000000000000000000000000000000000000000081565b6000600260009054906101000a900460ff1615610989576040517f08c379a000000000000000000000000000000000000000000000000000000000815260040180806020018281038252600e8152602001807f5265656e7472616e742063616c6c00000000000000000000000000000000000081525060200191505060405180910390fd5b6001600260006101000a81548160ff021916908315150217905550600073ffffffffffffffffffffffffffffffffffffffff168473ffffffffffffffffffffffffffffffffffffffff161415610a47576040517f08c379a000000000000000000000000000000000000000000000000000000000815260040180806020018281038252601a8152602001807f5472616e736665722066726f6d207a65726f206164647265737300000000000081525060200191505060405180910390fd5b600073ffffffffffffffffffffffffffffffffffffffff168373ffffffffffffffffffffffffffffffffffffffff161415610aea576040517f08c379a00000000000000000000000000000000000000000000000000000000081526004018080602001828103825260188152602001807f5472616e7366657220746f207a65726f2061646472657373000000000000000081525060200191505060405180910390fd5b60008211610b43576040517f08c379a0000000000000000000000000000000000000000000000000000000008152600401808060200182810382526026815260200180611a516026913960400191505060405180910390fd5b816000808673ffffffffffffffffffffffffffffffffffffffff1673ffffffffffffffffffffffffffffffffffffffff168152602001908152602001600020541015610bf7576040517f08c379a00000000000000000000000000000000000000000000000000000000081526004018080602001828103825260148152602001807f496e73756666696369656e742062616c616e636500000000000000000000000081525060200191505060405180910390fd5b81600160008673ffffffffffffffffffffffffffffffffffffffff1673ffffffffffffffffffffffffffffffffffffffff16815260200190815260200160002060003373ffffffffffffffffffffffffffffffffffffffff1673ffffffffffffffffffffffffffffffffffffffff168152602001908152602001600020541015610ce9576040517f08c379a00000000000000000000000000000000000000000000000000000000081526004018080602001828103825260168152602001807f496e73756666696369656e7420616c6c6f77616e63650000000000000000000081525060200191505060405180910390fd5b610d7882600160008773ffffffffffffffffffffffffffffffffffffffff1673ffffffffffffffffffffffffffffffffffffffff16815260200190815260200160002060003373ffffffffffffffffffffffffffffffffffffffff1673ffffffffffffffffffffffffffffffffffffffff168152602001908152602001600020546116f990919063ffffffff16565b600160008673ffffffffffffffffffffffffffffffffffffffff1673ffffffffffffffffffffffffffffffffffffffff16815260200190815260200160002060003373ffffffffffffffffffffffffffffffffffffffff1673ffffffffffffffffffffffffffffffffffffffff16815260200190815260200160002081905550610e0384848461177c565b90506000600260006101000a81548160ff0219169083151502179055509392505050565b601281565b60008073ffffffffffffffffffffffffffffffffffffffff168373ffffffffffffffffffffffffffffffffffffffff161415610ed0576040517f08c379a00000000000000000000000000000000000000000000000000000000081526004018080602001828103825260178152602001807f417070726f766520746f207a65726f206164647265737300000000000000000081525060200191505060405180910390fd5b3373ffffffffffffffffffffffffffffffffffffffff168373ffffffffffffffffffffffffffffffffffffffff161415610f72576040517f08c379a000000000000000000000000000000000000000000000000000000000815260040180806020018281038252600f8152602001807f417070726f766520746f2073656c66000000000000000000000000000000000081525060200191505060405180910390fd5b600061100383600160003373ffffffffffffffffffffffffffffffffffffffff1673ffffffffffffffffffffffffffffffffffffffff16815260200190815260200160002060008773ffffffffffffffffffffffffffffffffffffffff1673ffffffffffffffffffffffffffffffffffffffff168152602001908152602001600020546119c890919063ffffffff16565b905080600160003373ffffffffffffffffffffffffffffffffffffffff1673ffffffffffffffffffffffffffffffffffffffff16815260200190815260200160002060008673ffffffffffffffffffffffffffffffffffffffff1673ffffffffffffffffffffffffffffffffffffffff168152602001908152602001600020819055508373ffffffffffffffffffffffffffffffffffffffff163373ffffffffffffffffffffffffffffffffffffffff167f8c5be1e5ebec7d5bd14f71427d1e84f3dd0314c0f7b2291e5b200ac8c7c3b925836040518082815260200191505060405180910390a3600191505092915050565b60006020528060005260406000206000915090505481565b6040518060400160405280600c81526020017f52696368617264546f6b656e000000000000000000000000000000000000000081525081565b60008073ffffffffffffffffffffffffffffffffffffffff168373ffffffffffffffffffffffffffffffffffffffff1614156111eb576040517f08c379a00000000000000000000000000000000000000000000000000000000081526004018080602001828103825260178152602001807f417070726f766520746f207a65726f206164647265737300000000000000000081525060200191505060405180910390fd5b81600160003373ffffffffffffffffffffffffffffffffffffffff1673ffffffffffffffffffffffffffffffffffffffff16815260200190815260200160002060008573ffffffffffffffffffffffffffffffffffffffff1673ffffffffffffffffffffffffffffffffffffffff1681526020019081526020016000205410156112dd576040517f08c379a000000000000000000000000000000000000000000000000000000000815260040180806020018281038252601e8152602001807f44656372656173656420616c6c6f77616e63652062656c6f77207a65726f000081525060200191505060405180910390fd5b600061136e83600160003373ffffffffffffffffffffffffffffffffffffffff1673ffffffffffffffffffffffffffffffffffffffff16815260200190815260200160002060008773ffffffffffffffffffffffffffffffffffffffff1673ffffffffffffffffffffffffffffffffffffffff168152602001908152602001600020546116f990919063ffffffff16565b905080600160003373ffffffffffffffffffffffffffffffffffffffff1673ffffffffffffffffffffffffffffffffffffffff16815260200190815260200160002060008673ffffffffffffffffffffffffffffffffffffffff1673ffffffffffffffffffffffffffffffffffffffff168152602001908152602001600020819055508373ffffffffffffffffffffffffffffffffffffffff163373ffffffffffffffffffffffffffffffffffffffff167f8c5be1e5ebec7d5bd14f71427d1e84f3dd0314c0f7b2291e5b200ac8c7c3b925836040518082815260200191505060405180910390a3600191505092915050565b6000600260009054906101000a900460ff16156114e6576040517f08c379a000000000000000000000000000000000000000000000000000000000815260040180806020018281038252600e8152602001807f5265656e7472616e742063616c6c00000000000000000000000000000000000081525060200191505060405180910390fd5b6001600260006101000a81548160ff021916908315150217905550600073ffffffffffffffffffffffffffffffffffffffff168373ffffffffffffffffffffffffffffffffffffffff1614156115a4576040517f08c379a00000000000000000000000000000000000000000000000000000000081526004018080602001828103825260188152602001807f5472616e7366657220746f207a65726f2061646472657373000000000000000081525060200191505060405180910390fd5b600082116115fd576040517f08c379a0000000000000000000000000000000000000000000000000000000008152600401808060200182810382526026815260200180611a516026913960400191505060405180910390fd5b61160833848461177c565b90506000600260006101000a81548160ff02191690831515021790555092915050565b60007f0000000000000000000000000000000000000000000000000000000000000000905090565b6001602052816000526040600020602052806000526040600020600091509150505481565b6040518060400160405280600381526020017f52544b000000000000000000000000000000000000000000000000000000000081525081565b60008060008373ffffffffffffffffffffffffffffffffffffffff1673ffffffffffffffffffffffffffffffffffffffff168152602001908152602001600020549050919050565b600082821115611771576040517f08c379a000000000000000000000000000000000000000000000000000000000815260040180806020018281038252601e8152602001807f536166654d6174683a207375627472616374696f6e206f766572666c6f77000081525060200191505060405180910390fd5b818303905092915050565b6000816000808673ffffffffffffffffffffffffffffffffffffffff1673ffffffffffffffffffffffffffffffffffffffff168152602001908152602001600020541015611832576040517f08c379a00000000000000000000000000000000000000000000000000000000081526004018080602001828103825260148152602001807f496e73756666696369656e742062616c616e636500000000000000000000000081525060200191505060405180910390fd5b611883826000808773ffffffffffffffffffffffffffffffffffffffff1673ffffffffffffffffffffffffffffffffffffffff168152602001908152602001600020546116f990919063ffffffff16565b6000808673ffffffffffffffffffffffffffffffffffffffff1673ffffffffffffffffffffffffffffffffffffffff16815260200190815260200160002081905550611916826000808673ffffffffffffffffffffffffffffffffffffffff1673ffffffffffffffffffffffffffffffffffffffff168152602001908152602001600020546119c890919063ffffffff16565b6000808573ffffffffffffffffffffffffffffffffffffffff1673ffffffffffffffffffffffffffffffffffffffff168152602001908152602001600020819055508273ffffffffffffffffffffffffffffffffffffffff168473ffffffffffffffffffffffffffffffffffffffff167fddf252ad1be2c89b69c2b068fc378daa952ba7f163c4a11628f55a4df523b3ef846040518082815260200191505060405180910390a3600190509392505050565b600080828401905083811015611a46576040517f08c379a000000000000000000000000000000000000000000000000000000000815260040180806020018281038252601b8152602001807f536166654d6174683a206164646974696f6e206f766572666c6f77000000000081525060200191505060405180910390fd5b809150509291505056fe5472616e7366657220616d6f756e74206d7573742062652067726561746572207468616e2030a2646970667358221220be2271716deaa99fa1ff2c05e4ea09fb09bdeeb3a8ecbaeefcdd5ec532bcb08964736f6c63430007060033",
  "immutableReferences": {
    "1360": [
      {
        "length": 32,
        "start": 2274
      },
      {
        "length": 32,
        "start": 5679
      }
    ]
  },
  "source": "// SPDX-License-Identifier: MIT\r\npragma solidity >=0.4.22 <0.9.0;\r\nimport \"openzeppelin-solidity/contracts/math/SafeMath.sol\";\r\n\r\n/**\r\n * @title RichardToken\r\n * @dev ERC20 代币合约实现\r\n * @notice 这是一个优化的 ERC20 代币合约，具有更高的安全性和 gas 效率\r\n */\r\ncontract RichardToken {\r\n    using SafeMath for uint256;\r\n    \r\n    // 代币基本信息 - 使用 constant 优化 gas\r\n    string public constant NAME = \"RichardToken\";\r\n    string public constant SYMBOL = \"RTK\";\r\n    uint8 public constant DECIMALS = 18;\r\n    \r\n    // 总供应量 - 使用 immutable 优化 gas\r\n    uint256 public immutable totalSupply;\r\n\r\n    // 余额映射\r\n    mapping(address => uint256) public balanceOf;\r\n    \r\n    // 授权映射\r\n    mapping(address => mapping(address => uint256)) public allowance;\r\n    \r\n    // 重入攻击保护\r\n    bool private locked;\r\n    \r\n    // 事件定义 - 优化 gas\r\n    event Transfer(address indexed from, address indexed to, uint256 value);\r\n    event Approval(address indexed owner, address indexed spender, uint256 value);\r\n    // 构造函数 - 优化 gas 和安全性\r\n    constructor() {\r\n        uint256 initialSupply = 100000000 * 10 ** DECIMALS;\r\n        totalSupply = initialSupply;\r\n        balanceOf[msg.sender] = initialSupply;\r\n        emit Transfer(address(0), msg.sender, initialSupply);\r\n    }\r\n    \r\n    // 重入攻击保护修饰符\r\n    modifier nonReentrant() {\r\n        require(!locked, \"Reentrant call\");\r\n        locked = true;\r\n        _;\r\n        locked = false;\r\n    }\r\n\r\n    // 转账函数 - 优化 gas 和安全性\r\n    function transfer(address to, uint256 value) public nonReentrant returns (bool success) {\r\n        require(to != address(0), \"Transfer to zero address\");\r\n        require(value > 0, \"Transfer amount must be greater than 0\");\r\n        return _transfer(msg.sender, to, value);\r\n    }\r\n    \r\n    // 授权转账函数 - 优化 gas 和安全性\r\n    function transferFrom(address from, address to, uint256 value) public nonReentrant returns (bool success) {\r\n        require(from != address(0), \"Transfer from zero address\");\r\n        require(to != address(0), \"Transfer to zero address\");\r\n        require(value > 0, \"Transfer amount must be greater than 0\");\r\n        require(balanceOf[from] >= value, \"Insufficient balance\");\r\n        require(allowance[from][msg.sender] >= value, \"Insufficient allowance\");\r\n        \r\n        // 先更新授权额度，再执行转账（CEI 模式）\r\n        allowance[from][msg.sender] = allowance[from][msg.sender].sub(value);\r\n        return _transfer(from, to, value);\r\n    }\r\n    // 授权函数 - 优化 gas 和安全性\r\n    function approve(address spender, uint256 value) public returns (bool success) {\r\n        require(spender != address(0), \"Approve to zero address\");\r\n        require(spender != msg.sender, \"Approve to self\");\r\n        \r\n        allowance[msg.sender][spender] = value;\r\n        emit Approval(msg.sender, spender, value);\r\n        return true;\r\n    }\r\n    \r\n    // 增加授权额度 - ERC20 标准扩展\r\n    function increaseAllowance(address spender, uint256 addedValue) public returns (bool success) {\r\n        require(spender != address(0), \"Approve to zero address\");\r\n        require(spender != msg.sender, \"Approve to self\");\r\n        \r\n        uint256 newAllowance = allowance[msg.sender][spender].add(addedValue);\r\n        allowance[msg.sender][spender] = newAllowance;\r\n        emit Approval(msg.sender, spender, newAllowance);\r\n        return true;\r\n    }\r\n    \r\n    // 减少授权额度 - ERC20 标准扩展\r\n    function decreaseAllowance(address spender, uint256 subtractedValue) public returns (bool success) {\r\n        require(spender != address(0), \"Approve to zero address\");\r\n        require(allowance[msg.sender][spender] >= subtractedValue, \"Decreased allowance below zero\");\r\n        \r\n        uint256 newAllowance = allowance[msg.sender][spender].sub(subtractedValue);\r\n        allowance[msg.sender][spender] = newAllowance;\r\n        emit Approval(msg.sender, spender, newAllowance);\r\n        return true;\r\n    }\r\n    // 内部转账函数 - 优化 gas 和安全性\r\n    function _transfer(address from, address to, uint256 value) internal returns (bool success) {\r\n        require(balanceOf[from] >= value, \"Insufficient balance\");\r\n        \r\n        // 使用 SafeMath 防止溢出\r\n        balanceOf[from] = balanceOf[from].sub(value);\r\n        balanceOf[to] = balanceOf[to].add(value);\r\n        \r\n        // 触发转账事件\r\n        emit Transfer(from, to, value);\r\n        return true;\r\n    }\r\n    \r\n    // 查询余额 - 优化 gas\r\n    function getBalance(address account) public view returns (uint256) {\r\n        return balanceOf[account];\r\n    }\r\n    \r\n    // 查询授权额度 - 优化 gas\r\n    function getAllowance(address owner, address spender) public view returns (uint256) {\r\n        return allowance[owner][spender];\r\n    }\r\n    \r\n    // 查询总供应量 - 优化 gas\r\n    function getTotalSupply() public view returns (uint256) {\r\n        return totalSupply;\r\n    }\r\n}\r\n\r\n// web3开发，一定要考虑边界问题！！！",
  "sourcePath": "C:\\Users\\Administrator\\Desktop\\blog-anything\\contracts\\richardToken.sol",
  "compiler": {
    "name": "solc",
    "version": "0.7.6+commit.7338295f.Emscripten.clang"
  },
  "schemaVersion": "3.4.16",
  "updatedAt": "2025-09-23T14:20:53.768Z",
  "networkType": "ethereum",
  "devdoc": {
    "details": "ERC20 代币合约实现",
    "kind": "dev",
    "methods": {},
    "title": "RichardToken",
    "version": 1
  },
  "userdoc": {
    "kind": "user",
    "methods": {},
    "notice": "这是一个优化的 ERC20 代币合约，具有更高的安全性和 gas 效率",
    "version": 1
  }
}